{
  "address": "0x5FbDB2315678afecb367f032d93F642f64180aa3",
  "abi": [
    {
      "inputs": [],
      "stateMutability": "nonpayable",
      "type": "constructor"
    },
    {
      "inputs": [],
      "name": "Socialmedia__PostisNotExist",
      "type": "error"
    },
    {
      "inputs": [],
      "name": "Socialmedia__ThereIsNoEthBalance",
      "type": "error"
    },
    {
      "inputs": [],
      "name": "Socialmedia__TransactionFailed",
      "type": "error"
    },
    {
      "inputs": [],
      "name": "Socialmedia__imageCdnLengthMustBeGreatherThanZero",
      "type": "error"
    },
    {
      "inputs": [],
      "name": "Socialmedia__notAnOwner",
      "type": "error"
    },
    {
      "inputs": [],
      "name": "Socialmedia__notEnoughEthSended",
      "type": "error"
    },
    {
      "inputs": [],
      "name": "Socialmedia__postOwnerCannotTiptheirPosts",
      "type": "error"
    },
    {
      "inputs": [],
      "name": "Socialmedia__thisPostIsNotExist",
      "type": "error"
    },
    {
      "inputs": [],
      "name": "Socialmedia__userCannotSendPostToTheSameAccount",
      "type": "error"
    },
    {
      "inputs": [],
      "name": "Socialmedia__userDontHaveThePost",
      "type": "error"
    },
    {
      "inputs": [],
      "name": "Socialmedia__userNameIsAlreadyExist",
      "type": "error"
    },
    {
      "inputs": [],
      "name": "Socialmedia__userNameIsNotExist",
      "type": "error"
    },
    {
      "inputs": [],
      "name": "Socialmedia__userNameLenghtMustBeGreatherThanZero",
      "type": "error"
    },
    {
      "anonymous": false,
      "inputs": [
        {
          "indexed": false,
          "internalType": "uint256",
          "name": "index",
          "type": "uint256"
        }
      ],
      "name": "LogIterationIndex",
      "type": "event"
    },
    {
      "anonymous": false,
      "inputs": [
        {
          "indexed": true,
          "internalType": "uint256",
          "name": "userId",
          "type": "uint256"
        },
        {
          "indexed": true,
          "internalType": "uint256",
          "name": "postId",
          "type": "uint256"
        }
      ],
      "name": "PostDeleted",
      "type": "event"
    },
    {
      "anonymous": false,
      "inputs": [
        {
          "indexed": true,
          "internalType": "uint256",
          "name": "userId",
          "type": "uint256"
        },
        {
          "indexed": true,
          "internalType": "string",
          "name": "postImageUr",
          "type": "string"
        },
        {
          "indexed": true,
          "internalType": "uint256",
          "name": "imageIndex",
          "type": "uint256"
        }
      ],
      "name": "newPostAdded",
      "type": "event"
    },
    {
      "anonymous": false,
      "inputs": [
        {
          "indexed": true,
          "internalType": "uint256",
          "name": "userId",
          "type": "uint256"
        },
        {
          "indexed": true,
          "internalType": "string",
          "name": "userName",
          "type": "string"
        },
        {
          "indexed": true,
          "internalType": "string",
          "name": "profileImage",
          "type": "string"
        }
      ],
      "name": "newUserSignup",
      "type": "event"
    },
    {
      "anonymous": false,
      "inputs": [
        {
          "indexed": true,
          "internalType": "uint256",
          "name": "userId",
          "type": "uint256"
        },
        {
          "indexed": true,
          "internalType": "uint256",
          "name": "postReciverId",
          "type": "uint256"
        }
      ],
      "name": "postSended",
      "type": "event"
    },
    {
      "anonymous": false,
      "inputs": [
        {
          "indexed": true,
          "internalType": "uint256",
          "name": "postOwnerId",
          "type": "uint256"
        },
        {
          "indexed": true,
          "internalType": "uint256",
          "name": "postId",
          "type": "uint256"
        },
        {
          "indexed": true,
          "internalType": "uint256",
          "name": "tipedAmount",
          "type": "uint256"
        }
      ],
      "name": "postTiped",
      "type": "event"
    },
    {
      "anonymous": false,
      "inputs": [
        {
          "indexed": true,
          "internalType": "uint256",
          "name": "userId",
          "type": "uint256"
        },
        {
          "indexed": true,
          "internalType": "string",
          "name": "newProfileImageUrl",
          "type": "string"
        }
      ],
      "name": "profileImageChanged",
      "type": "event"
    },
    {
      "stateMutability": "payable",
      "type": "fallback"
    },
    {
      "inputs": [
        {
          "internalType": "uint256",
          "name": "userId",
          "type": "uint256"
        },
        {
          "internalType": "string",
          "name": "postImageUrl",
          "type": "string"
        }
      ],
      "name": "addNewPost",
      "outputs": [],
      "stateMutability": "nonpayable",
      "type": "function"
    },
    {
      "inputs": [
        {
          "internalType": "uint256",
          "name": "userId",
          "type": "uint256"
        },
        {
          "internalType": "string",
          "name": "newProfileImageUrl",
          "type": "string"
        }
      ],
      "name": "changeProfileImage",
      "outputs": [],
      "stateMutability": "nonpayable",
      "type": "function"
    },
    {
      "inputs": [
        {
          "internalType": "string",
          "name": "userName",
          "type": "string"
        }
      ],
      "name": "checkUserNameIsExist",
      "outputs": [
        {
          "internalType": "bool",
          "name": "",
          "type": "bool"
        }
      ],
      "stateMutability": "view",
      "type": "function"
    },
    {
      "inputs": [
        {
          "internalType": "uint256",
          "name": "userId",
          "type": "uint256"
        },
        {
          "internalType": "uint256",
          "name": "postId",
          "type": "uint256"
        },
        {
          "internalType": "uint256",
          "name": "postIndex",
          "type": "uint256"
        }
      ],
      "name": "deletePost",
      "outputs": [],
      "stateMutability": "nonpayable",
      "type": "function"
    },
    {
      "inputs": [
        {
          "internalType": "uint256",
          "name": "postId",
          "type": "uint256"
        },
        {
          "internalType": "bool",
          "name": "isFirstCall",
          "type": "bool"
        }
      ],
      "name": "getAllPosts",
      "outputs": [
        {
          "components": [
            {
              "internalType": "uint256",
              "name": "postId",
              "type": "uint256"
            },
            {
              "internalType": "uint256",
              "name": "postIndex",
              "type": "uint256"
            },
            {
              "internalType": "uint256",
              "name": "userId",
              "type": "uint256"
            },
            {
              "internalType": "bytes20",
              "name": "userName",
              "type": "bytes20"
            },
            {
              "internalType": "bytes",
              "name": "postImageUrl",
              "type": "bytes"
            },
            {
              "internalType": "uint256",
              "name": "tipedAmount",
              "type": "uint256"
            },
            {
              "internalType": "bool",
              "name": "isActive",
              "type": "bool"
            },
            {
              "internalType": "bytes20[]",
              "name": "tipedUsers",
              "type": "bytes20[]"
            },
            {
              "internalType": "bytes20[]",
              "name": "owners",
              "type": "bytes20[]"
            }
          ],
          "internalType": "struct Socialmedia.Post[]",
          "name": "",
          "type": "tuple[]"
        }
      ],
      "stateMutability": "view",
      "type": "function"
    },
    {
      "inputs": [],
      "name": "getMostTipedImage",
      "outputs": [
        {
          "components": [
            {
              "internalType": "uint256",
              "name": "postId",
              "type": "uint256"
            },
            {
              "internalType": "uint256",
              "name": "postIndex",
              "type": "uint256"
            },
            {
              "internalType": "uint256",
              "name": "userId",
              "type": "uint256"
            },
            {
              "internalType": "bytes20",
              "name": "userName",
              "type": "bytes20"
            },
            {
              "internalType": "bytes",
              "name": "postImageUrl",
              "type": "bytes"
            },
            {
              "internalType": "uint256",
              "name": "tipedAmount",
              "type": "uint256"
            },
            {
              "internalType": "bool",
              "name": "isActive",
              "type": "bool"
            },
            {
              "internalType": "bytes20[]",
              "name": "tipedUsers",
              "type": "bytes20[]"
            },
            {
              "internalType": "bytes20[]",
              "name": "owners",
              "type": "bytes20[]"
            }
          ],
          "internalType": "struct Socialmedia.Post",
          "name": "",
          "type": "tuple"
        }
      ],
      "stateMutability": "view",
      "type": "function"
    },
    {
      "inputs": [
        {
          "internalType": "uint256",
          "name": "userId",
          "type": "uint256"
        },
        {
          "internalType": "uint256",
          "name": "index",
          "type": "uint256"
        }
      ],
      "name": "getPostByIndex",
      "outputs": [
        {
          "components": [
            {
              "internalType": "uint256",
              "name": "postId",
              "type": "uint256"
            },
            {
              "internalType": "uint256",
              "name": "postIndex",
              "type": "uint256"
            },
            {
              "internalType": "uint256",
              "name": "userId",
              "type": "uint256"
            },
            {
              "internalType": "bytes20",
              "name": "userName",
              "type": "bytes20"
            },
            {
              "internalType": "bytes",
              "name": "postImageUrl",
              "type": "bytes"
            },
            {
              "internalType": "uint256",
              "name": "tipedAmount",
              "type": "uint256"
            },
            {
              "internalType": "bool",
              "name": "isActive",
              "type": "bool"
            },
            {
              "internalType": "bytes20[]",
              "name": "tipedUsers",
              "type": "bytes20[]"
            },
            {
              "internalType": "bytes20[]",
              "name": "owners",
              "type": "bytes20[]"
            }
          ],
          "internalType": "struct Socialmedia.Post",
          "name": "",
          "type": "tuple"
        }
      ],
      "stateMutability": "view",
      "type": "function"
    },
    {
      "inputs": [
        {
          "internalType": "uint256",
          "name": "userId",
          "type": "uint256"
        },
        {
          "internalType": "uint256",
          "name": "startIndex",
          "type": "uint256"
        }
      ],
      "name": "getPosts",
      "outputs": [
        {
          "components": [
            {
              "internalType": "uint256",
              "name": "postId",
              "type": "uint256"
            },
            {
              "internalType": "uint256",
              "name": "postIndex",
              "type": "uint256"
            },
            {
              "internalType": "uint256",
              "name": "userId",
              "type": "uint256"
            },
            {
              "internalType": "bytes20",
              "name": "userName",
              "type": "bytes20"
            },
            {
              "internalType": "bytes",
              "name": "postImageUrl",
              "type": "bytes"
            },
            {
              "internalType": "uint256",
              "name": "tipedAmount",
              "type": "uint256"
            },
            {
              "internalType": "bool",
              "name": "isActive",
              "type": "bool"
            },
            {
              "internalType": "bytes20[]",
              "name": "tipedUsers",
              "type": "bytes20[]"
            },
            {
              "internalType": "bytes20[]",
              "name": "owners",
              "type": "bytes20[]"
            }
          ],
          "internalType": "struct Socialmedia.Post[]",
          "name": "",
          "type": "tuple[]"
        }
      ],
      "stateMutability": "view",
      "type": "function"
    },
    {
      "inputs": [
        {
          "internalType": "uint256",
          "name": "",
          "type": "uint256"
        }
      ],
      "name": "s_allPosts",
      "outputs": [
        {
          "internalType": "uint256",
          "name": "postId",
          "type": "uint256"
        },
        {
          "internalType": "uint256",
          "name": "postIndex",
          "type": "uint256"
        },
        {
          "internalType": "uint256",
          "name": "userId",
          "type": "uint256"
        },
        {
          "internalType": "bytes20",
          "name": "userName",
          "type": "bytes20"
        },
        {
          "internalType": "bytes",
          "name": "postImageUrl",
          "type": "bytes"
        },
        {
          "internalType": "uint256",
          "name": "tipedAmount",
          "type": "uint256"
        },
        {
          "internalType": "bool",
          "name": "isActive",
          "type": "bool"
        }
      ],
      "stateMutability": "view",
      "type": "function"
    },
    {
      "inputs": [],
      "name": "s_highlyTipedImageIndex",
      "outputs": [
        {
          "internalType": "uint256",
          "name": "",
          "type": "uint256"
        }
      ],
      "stateMutability": "view",
      "type": "function"
    },
    {
      "inputs": [],
      "name": "s_totalUsers",
      "outputs": [
        {
          "internalType": "uint256",
          "name": "",
          "type": "uint256"
        }
      ],
      "stateMutability": "view",
      "type": "function"
    },
    {
      "inputs": [
        {
          "internalType": "bytes20",
          "name": "",
          "type": "bytes20"
        }
      ],
      "name": "s_userNameToUserIndex",
      "outputs": [
        {
          "internalType": "uint256",
          "name": "",
          "type": "uint256"
        }
      ],
      "stateMutability": "view",
      "type": "function"
    },
    {
      "inputs": [
        {
          "internalType": "uint256",
          "name": "",
          "type": "uint256"
        }
      ],
      "name": "s_users",
      "outputs": [
        {
          "internalType": "uint256",
          "name": "userId",
          "type": "uint256"
        },
        {
          "internalType": "bytes20",
          "name": "userName",
          "type": "bytes20"
        },
        {
          "internalType": "address",
          "name": "ownerAddress",
          "type": "address"
        },
        {
          "internalType": "bytes",
          "name": "profileImageUrl",
          "type": "bytes"
        },
        {
          "internalType": "uint256",
          "name": "balanceEth",
          "type": "uint256"
        },
        {
          "internalType": "uint256",
          "name": "totalPosts",
          "type": "uint256"
        }
      ],
      "stateMutability": "view",
      "type": "function"
    },
    {
      "inputs": [
        {
          "internalType": "uint256",
          "name": "userId",
          "type": "uint256"
        },
        {
          "internalType": "uint256",
          "name": "postId",
          "type": "uint256"
        },
        {
          "internalType": "uint256",
          "name": "postIndex",
          "type": "uint256"
        },
        {
          "internalType": "string",
          "name": "postReciverName",
          "type": "string"
        }
      ],
      "name": "sendPostToOtherUser",
      "outputs": [],
      "stateMutability": "nonpayable",
      "type": "function"
    },
    {
      "inputs": [
        {
          "internalType": "string",
          "name": "userName",
          "type": "string"
        }
      ],
      "name": "signIn",
      "outputs": [
        {
          "components": [
            {
              "internalType": "uint256",
              "name": "userId",
              "type": "uint256"
            },
            {
              "internalType": "bytes20",
              "name": "userName",
              "type": "bytes20"
            },
            {
              "internalType": "address",
              "name": "ownerAddress",
              "type": "address"
            },
            {
              "internalType": "bytes",
              "name": "profileImageUrl",
              "type": "bytes"
            },
            {
              "internalType": "uint256",
              "name": "balanceEth",
              "type": "uint256"
            },
            {
              "internalType": "uint256[]",
              "name": "posts",
              "type": "uint256[]"
            },
            {
              "internalType": "uint256",
              "name": "totalPosts",
              "type": "uint256"
            }
          ],
          "internalType": "struct Socialmedia.User",
          "name": "",
          "type": "tuple"
        }
      ],
      "stateMutability": "view",
      "type": "function"
    },
    {
      "inputs": [
        {
          "internalType": "string",
          "name": "userName",
          "type": "string"
        },
        {
          "internalType": "string",
          "name": "profileImageUrl",
          "type": "string"
        }
      ],
      "name": "signUp",
      "outputs": [],
      "stateMutability": "nonpayable",
      "type": "function"
    },
    {
      "inputs": [
        {
          "internalType": "uint256",
          "name": "requestUserId",
          "type": "uint256"
        },
        {
          "internalType": "string",
          "name": "userName",
          "type": "string"
        }
      ],
      "name": "singleUser",
      "outputs": [
        {
          "components": [
            {
              "internalType": "uint256",
              "name": "userId",
              "type": "uint256"
            },
            {
              "internalType": "bytes20",
              "name": "userName",
              "type": "bytes20"
            },
            {
              "internalType": "address",
              "name": "ownerAddress",
              "type": "address"
            },
            {
              "internalType": "bytes",
              "name": "profileImageUrl",
              "type": "bytes"
            },
            {
              "internalType": "uint256",
              "name": "balanceEth",
              "type": "uint256"
            },
            {
              "internalType": "uint256[]",
              "name": "posts",
              "type": "uint256[]"
            },
            {
              "internalType": "uint256",
              "name": "totalPosts",
              "type": "uint256"
            }
          ],
          "internalType": "struct Socialmedia.User",
          "name": "",
          "type": "tuple"
        },
        {
          "components": [
            {
              "internalType": "uint256",
              "name": "postId",
              "type": "uint256"
            },
            {
              "internalType": "uint256",
              "name": "postIndex",
              "type": "uint256"
            },
            {
              "internalType": "uint256",
              "name": "userId",
              "type": "uint256"
            },
            {
              "internalType": "bytes20",
              "name": "userName",
              "type": "bytes20"
            },
            {
              "internalType": "bytes",
              "name": "postImageUrl",
              "type": "bytes"
            },
            {
              "internalType": "uint256",
              "name": "tipedAmount",
              "type": "uint256"
            },
            {
              "internalType": "bool",
              "name": "isActive",
              "type": "bool"
            },
            {
              "internalType": "bytes20[]",
              "name": "tipedUsers",
              "type": "bytes20[]"
            },
            {
              "internalType": "bytes20[]",
              "name": "owners",
              "type": "bytes20[]"
            }
          ],
          "internalType": "struct Socialmedia.Post[]",
          "name": "",
          "type": "tuple[]"
        },
        {
          "internalType": "bool",
          "name": "",
          "type": "bool"
        }
      ],
      "stateMutability": "view",
      "type": "function"
    },
    {
      "inputs": [
        {
          "internalType": "uint256",
          "name": "userId",
          "type": "uint256"
        },
        {
          "internalType": "uint256",
          "name": "postId",
          "type": "uint256"
        },
        {
          "internalType": "uint256",
          "name": "postOwnerId",
          "type": "uint256"
        }
      ],
      "name": "tipPost",
      "outputs": [],
      "stateMutability": "payable",
      "type": "function"
    },
    {
      "inputs": [
        {
          "internalType": "uint256",
          "name": "userId",
          "type": "uint256"
        }
      ],
      "name": "withdraw",
      "outputs": [],
      "stateMutability": "nonpayable",
      "type": "function"
    },
    {
      "stateMutability": "payable",
      "type": "receive"
    }
  ],
  "transactionHash": "0x27fd607928aa9ac899301ab5426e975d98a9ab820832fd10c4aed6d1e807704f",
  "args": [],
  "numDeployments": 1,
  "solcInputHash": "536969551f47d16d11b1854a4a6be273",
  "bytecode": "0x60806040523480156200001157600080fd5b506001600481905550606060006040518060e0016040528060008152602001600060601b6bffffffffffffffffffffffff19168152602001600073ffffffffffffffffffffffffffffffffffffffff168152602001604051806020016040528060008152508152602001600081526020018381526020016000815250905060008190806001815401808255809150506001900390600052602060002090600702016000909190919091506000820151816000015560208201518160010160006101000a81548173ffffffffffffffffffffffffffffffffffffffff021916908360601c021790555060408201518160020160006101000a81548173ffffffffffffffffffffffffffffffffffffffff021916908373ffffffffffffffffffffffffffffffffffffffff1602179055506060820151816003019081620001579190620006ff565b506080820151816004015560a08201518160050190805190602001906200018092919062000398565b5060c0820151816006015550506001604051806101200160405280600081526020016000815260200160008152602001600060601b6bffffffffffffffffffffffff1916815260200160405180602001604052806000815250815260200160008152602001600015158152602001600067ffffffffffffffff8111156200020c576200020b62000490565b5b6040519080825280602002602001820160405280156200023b5781602001602082028036833780820191505090505b508152602001600067ffffffffffffffff8111156200025f576200025e62000490565b5b6040519080825280602002602001820160405280156200028e5781602001602082028036833780820191505090505b50815250908060018154018082558091505060019003906000526020600020906009020160009091909190915060008201518160000155602082015181600101556040820151816002015560608201518160030160006101000a81548173ffffffffffffffffffffffffffffffffffffffff021916908360601c02179055506080820151816004019081620003249190620006ff565b5060a0820151816005015560c08201518160060160006101000a81548160ff02191690831515021790555060e08201518160070190805190602001906200036d929190620003ea565b506101008201518160080190805190602001906200038d929190620003ea565b5050505050620007e6565b828054828255906000526020600020908101928215620003d7579160200282015b82811115620003d6578251825591602001919060010190620003b9565b5b509050620003e6919062000466565b5090565b82805482825590600052602060002090810192821562000453579160200282015b82811115620004525782518260006101000a81548173ffffffffffffffffffffffffffffffffffffffff021916908360601c0217905550916020019190600101906200040b565b5b50905062000462919062000466565b5090565b5b808211156200048157600081600090555060010162000467565b5090565b600081519050919050565b7f4e487b7100000000000000000000000000000000000000000000000000000000600052604160045260246000fd5b7f4e487b7100000000000000000000000000000000000000000000000000000000600052602260045260246000fd5b600060028204905060018216806200050757607f821691505b6020821081036200051d576200051c620004bf565b5b50919050565b60008190508160005260206000209050919050565b60006020601f8301049050919050565b600082821b905092915050565b600060088302620005877fffffffffffffffffffffffffffffffffffffffffffffffffffffffffffffffff8262000548565b62000593868362000548565b95508019841693508086168417925050509392505050565b6000819050919050565b6000819050919050565b6000620005e0620005da620005d484620005ab565b620005b5565b620005ab565b9050919050565b6000819050919050565b620005fc83620005bf565b620006146200060b82620005e7565b84845462000555565b825550505050565b600090565b6200062b6200061c565b62000638818484620005f1565b505050565b5b8181101562000660576200065460008262000621565b6001810190506200063e565b5050565b601f821115620006af57620006798162000523565b620006848462000538565b8101602085101562000694578190505b620006ac620006a38562000538565b8301826200063d565b50505b505050565b600082821c905092915050565b6000620006d460001984600802620006b4565b1980831691505092915050565b6000620006ef8383620006c1565b9150826002028217905092915050565b6200070a8262000485565b67ffffffffffffffff81111562000726576200072562000490565b5b620007328254620004ee565b6200073f82828562000664565b600060209050601f83116001811462000777576000841562000762578287015190505b6200076e8582620006e1565b865550620007de565b601f198416620007878662000523565b60005b82811015620007b1578489015182556001820191506020850194506020810190506200078a565b86831015620007d15784890151620007cd601f891682620006c1565b8355505b6001600288020188555050505b505050505050565b614e8e80620007f66000396000f3fe6080604052600436106101175760003560e01c806358b5f8b3116100a0578063a469a33211610064578063a469a332146103c1578063c1b5da44146103ea578063c33f748814610427578063c95f728a14610466578063f304d865146104a35761011e565b806358b5f8b3146102d757806362e67dba146102f357806364ca1a5e1461031c5780636e4e7865146103595780638aa26f43146103845761011e565b80632e1a7d4d116100e75780632e1a7d4d146101e05780633a9deb52146102095780633e29cff7146102345780634d10ab8b146102715780634ffd1be61461029a5761011e565b8062428442146101205780630e92df681461014b57806313df12d614610174578063208b2c71146101b75761011e565b3661011e57005b005b34801561012c57600080fd5b506101356104e5565b6040516101429190613cde565b60405180910390f35b34801561015757600080fd5b50610172600480360381019061016d9190613e7f565b6104eb565b005b34801561018057600080fd5b5061019b60048036038101906101969190613edb565b6109d9565b6040516101ae9796959493929190613fdd565b60405180910390f35b3480156101c357600080fd5b506101de60048036038101906101d99190613e7f565b610acd565b005b3480156101ec57600080fd5b5061020760048036038101906102029190613edb565b610c9d565b005b34801561021557600080fd5b5061021e610f8a565b60405161022b9190613cde565b60405180910390f35b34801561024057600080fd5b5061025b6004803603810190610256919061407f565b610f90565b6040516102689190613cde565b60405180910390f35b34801561027d57600080fd5b50610298600480360381019061029391906140ac565b610fa8565b005b3480156102a657600080fd5b506102c160048036038101906102bc919061412f565b6114fd565b6040516102ce919061442a565b60405180910390f35b6102f160048036038101906102ec919061444c565b611b2b565b005b3480156102ff57600080fd5b5061031a6004803603810190610315919061444c565b611f96565b005b34801561032857600080fd5b50610343600480360381019061033e919061449f565b61220c565b60405161035091906144e8565b60405180910390f35b34801561036557600080fd5b5061036e612268565b60405161037b91906145d6565b60405180910390f35b34801561039057600080fd5b506103ab60048036038101906103a69190614624565b6124cc565b6040516103b8919061442a565b60405180910390f35b3480156103cd57600080fd5b506103e860048036038101906103e39190614664565b61284f565b005b3480156103f657600080fd5b50610411600480360381019061040c919061412f565b612b26565b60405161041e91906145d6565b60405180910390f35b34801561043357600080fd5b5061044e60048036038101906104499190613e7f565b612e01565b60405161045d9392919061486f565b60405180910390f35b34801561047257600080fd5b5061048d6004803603810190610488919061449f565b6136f5565b60405161049a91906148b4565b60405180910390f35b3480156104af57600080fd5b506104ca60048036038101906104c59190613edb565b613a11565b6040516104dc969594939291906148e5565b60405180910390f35b60045481565b813373ffffffffffffffffffffffffffffffffffffffff16600082815481106105175761051661494d565b5b906000526020600020906007020160020160009054906101000a900473ffffffffffffffffffffffffffffffffffffffff1673ffffffffffffffffffffffffffffffffffffffff1614610596576040517f7216ab4300000000000000000000000000000000000000000000000000000000815260040160405180910390fd5b8260008114806105cb575080600082815481106105b6576105b561494d565b5b90600052602060002090600702016000015414155b15610602576040517f3be6df6f00000000000000000000000000000000000000000000000000000000815260040160405180910390fd5b82600081511161063e576040517f75483c9200000000000000000000000000000000000000000000000000000000815260040160405180910390fd5b60006001805490509050600080878154811061065d5761065c61494d565b5b9060005260206000209060070201600501805490509050600060405180610120016040528084815260200183815260200189815260200160008a815481106106a8576106a761494d565b5b906000526020600020906007020160010160009054906101000a900460601b6bffffffffffffffffffffffff1916815260200188815260200160008152602001600115158152602001600067ffffffffffffffff81111561070c5761070b613d54565b5b60405190808252806020026020018201604052801561073a5781602001602082028036833780820191505090505b508152602001600167ffffffffffffffff81111561075b5761075a613d54565b5b6040519080825280602002602001820160405280156107895781602001602082028036833780820191505090505b508152509050600088815481106107a3576107a261494d565b5b906000526020600020906007020160010160009054906101000a900460601b8161010001516000815181106107db576107da61494d565b5b60200260200101906bffffffffffffffffffffffff191690816bffffffffffffffffffffffff191681525050600181908060018154018082558091505060019003906000526020600020906009020160009091909190915060008201518160000155602082015181600101556040820151816002015560608201518160030160006101000a81548173ffffffffffffffffffffffffffffffffffffffff021916908360601c0217905550608082015181600401908161089a9190614b88565b5060a0820151816005015560c08201518160060160006101000a81548160ff02191690831515021790555060e08201518160070190805190602001906108e1929190613b25565b506101008201518160080190805190602001906108ff929190613b25565b505050600088815481106109165761091561494d565b5b90600052602060002090600702016005018390806001815401808255809150506001900390600052602060002001600090919091909150556001600089815481106109645761096361494d565b5b906000526020600020906007020160060160008282546109849190614c89565b92505081905550828760405161099a9190614d04565b6040518091039020897fd112f9eae639c68386dedc64dd5e14b1da964b021bd0ec1ef4a88fa17624ba7060405160405180910390a45050505050505050565b600181815481106109e957600080fd5b90600052602060002090600902016000915090508060000154908060010154908060020154908060030160009054906101000a900460601b90806004018054610a31906149ab565b80601f0160208091040260200160405190810160405280929190818152602001828054610a5d906149ab565b8015610aaa5780601f10610a7f57610100808354040283529160200191610aaa565b820191906000526020600020905b815481529060010190602001808311610a8d57829003601f168201915b5050505050908060050154908060060160009054906101000a900460ff16905087565b813373ffffffffffffffffffffffffffffffffffffffff1660008281548110610af957610af861494d565b5b906000526020600020906007020160020160009054906101000a900473ffffffffffffffffffffffffffffffffffffffff1673ffffffffffffffffffffffffffffffffffffffff1614610b78576040517f7216ab4300000000000000000000000000000000000000000000000000000000815260040160405180910390fd5b826000811480610bad57508060008281548110610b9857610b9761494d565b5b90600052602060002090600702016000015414155b15610be4576040517f3be6df6f00000000000000000000000000000000000000000000000000000000815260040160405180910390fd5b826000815111610c20576040517f75483c9200000000000000000000000000000000000000000000000000000000815260040160405180910390fd5b8360008681548110610c3557610c3461494d565b5b90600052602060002090600702016003019081610c529190614b88565b5083604051610c619190614d04565b6040518091039020857f430572e4ae9040af885b1a70a8ca5a6d3121c85c0ef468230093ad17125d7e0360405160405180910390a35050505050565b803373ffffffffffffffffffffffffffffffffffffffff1660008281548110610cc957610cc861494d565b5b906000526020600020906007020160020160009054906101000a900473ffffffffffffffffffffffffffffffffffffffff1673ffffffffffffffffffffffffffffffffffffffff1614610d48576040517f7216ab4300000000000000000000000000000000000000000000000000000000815260040160405180910390fd5b816000811480610d7d57508060008281548110610d6857610d6761494d565b5b90600052602060002090600702016000015414155b15610db4576040517f3be6df6f00000000000000000000000000000000000000000000000000000000815260040160405180910390fd5b6000808481548110610dc957610dc861494d565b5b90600052602060002090600702016004015411610e12576040517f107c726700000000000000000000000000000000000000000000000000000000815260040160405180910390fd5b6000808481548110610e2757610e2661494d565b5b906000526020600020906007020160040154905060008481548110610e4f57610e4e61494d565b5b90600052602060002090600702016004015460008581548110610e7557610e7461494d565b5b90600052602060002090600702016004016000828254610e959190614d1b565b925050819055506000808581548110610eb157610eb061494d565b5b906000526020600020906007020160020160009054906101000a900473ffffffffffffffffffffffffffffffffffffffff1673ffffffffffffffffffffffffffffffffffffffff1682604051610f0690614d80565b60006040518083038185875af1925050503d8060008114610f43576040519150601f19603f3d011682016040523d82523d6000602084013e610f48565b606091505b5050905080610f83576040517f786df22c00000000000000000000000000000000000000000000000000000000815260040160405180910390fd5b5050505050565b60025481565b60036020528060005260406000206000915090505481565b833373ffffffffffffffffffffffffffffffffffffffff1660008281548110610fd457610fd361494d565b5b906000526020600020906007020160020160009054906101000a900473ffffffffffffffffffffffffffffffffffffffff1673ffffffffffffffffffffffffffffffffffffffff1614611053576040517f7216ab4300000000000000000000000000000000000000000000000000000000815260040160405180910390fd5b846000811480611088575080600082815481106110735761107261494d565b5b90600052602060002090600702016000015414155b156110bf576040517f3be6df6f00000000000000000000000000000000000000000000000000000000815260040160405180910390fd5b600185815481106110d3576110d261494d565b5b906000526020600020906009020160060160009054906101000a900460ff16611128576040517f5f755d0a00000000000000000000000000000000000000000000000000000000815260040160405180910390fd5b60006003600061113786613b12565b6bffffffffffffffffffffffff19166bffffffffffffffffffffffff19168152602001908152602001600020549050600081148061119a575080600082815481106111855761118461494d565b5b90600052602060002090600702016000015414155b156111d1576040517f3be6df6f00000000000000000000000000000000000000000000000000000000815260040160405180910390fd5b80870361120a576040517f0b7ff15200000000000000000000000000000000000000000000000000000000815260040160405180910390fd5b6000818154811061121e5761121d61494d565b5b9060005260206000209060070201600501869080600181540180825580915050600190039060005260206000200160009091909190915055600080888154811061126b5761126a61494d565b5b9060005260206000209060070201600501868154811061128e5761128d61494d565b5b90600052602060002001819055506001600082815481106112b2576112b161494d565b5b9060005260206000209060070201600501805490506112d19190614d1b565b600187815481106112e5576112e461494d565b5b906000526020600020906009020160010181905550806001878154811061130f5761130e61494d565b5b906000526020600020906009020160020181905550600081815481106113385761133761494d565b5b906000526020600020906007020160010160009054906101000a900460601b6001878154811061136b5761136a61494d565b5b906000526020600020906009020160030160006101000a81548173ffffffffffffffffffffffffffffffffffffffff021916908360601c0217905550600186815481106113bb576113ba61494d565b5b9060005260206000209060090201600801600082815481106113e0576113df61494d565b5b906000526020600020906007020160010160009054906101000a900460601b9080600181540180825580915050600190039060005260206000200160009091909190916101000a81548173ffffffffffffffffffffffffffffffffffffffff021916908360601c02179055506001600088815481106114625761146161494d565b5b906000526020600020906007020160060160008282546114829190614d1b565b9250508190555060016000828154811061149f5761149e61494d565b5b906000526020600020906007020160060160008282546114bf9190614c89565b9250508190555080877f3d0a6bf8c0135d2a016a73a9b5b2f844dd2d49675f92f25399f18f4eaa7b930d60405160405180910390a350505050505050565b60608260008114806115345750806000828154811061151f5761151e61494d565b5b90600052602060002090600702016000015414155b1561156b576040517f3be6df6f00000000000000000000000000000000000000000000000000000000815260040160405180910390fd5b60008085815481106115805761157f61494d565b5b90600052602060002090600702016040518060e0016040529081600082015481526020016001820160009054906101000a900460601b6bffffffffffffffffffffffff19166bffffffffffffffffffffffff191681526020016002820160009054906101000a900473ffffffffffffffffffffffffffffffffffffffff1673ffffffffffffffffffffffffffffffffffffffff1673ffffffffffffffffffffffffffffffffffffffff16815260200160038201805461163e906149ab565b80601f016020809104026020016040519081016040528092919081815260200182805461166a906149ab565b80156116b75780601f1061168c576101008083540402835291602001916116b7565b820191906000526020600020905b81548152906001019060200180831161169a57829003601f168201915b50505050508152602001600482015481526020016005820180548060200260200160405190810160405280929190818152602001828054801561171957602002820191906000526020600020905b815481526020019060010190808311611705575b50505050508152602001600682015481525050905060008160a00151510361179857600067ffffffffffffffff81111561175657611755613d54565b5b60405190808252806020026020018201604052801561178f57816020015b61177c613b9c565b8152602001906001900390816117745790505b50925050611b24565b6000600a67ffffffffffffffff8111156117b5576117b4613d54565b5b6040519080825280602002602001820160405280156117ee57816020015b6117db613b9c565b8152602001906001900390816117d35790505b509050600085148061180f575060018260c0015161180c9190614d1b565b85115b156118285760018260c001516118259190614d1b565b94505b6000808690505b600081121580156118405750600a82105b15611b195760018460a00151828151811061185e5761185d61494d565b5b6020026020010151815481106118775761187661494d565b5b906000526020600020906009020160060160009054906101000a900460ff1615611b065760018460a0015182815181106118b4576118b361494d565b5b6020026020010151815481106118cd576118cc61494d565b5b9060005260206000209060090201604051806101200160405290816000820154815260200160018201548152602001600282015481526020016003820160009054906101000a900460601b6bffffffffffffffffffffffff19166bffffffffffffffffffffffff1916815260200160048201805461194a906149ab565b80601f0160208091040260200160405190810160405280929190818152602001828054611976906149ab565b80156119c35780601f10611998576101008083540402835291602001916119c3565b820191906000526020600020905b8154815290600101906020018083116119a657829003601f168201915b50505050508152602001600582015481526020016006820160009054906101000a900460ff1615151515815260200160078201805480602002602001604051908101604052809291908181526020018280548015611a5c57602002820191906000526020600020905b8160009054906101000a900460601b6bffffffffffffffffffffffff191681526020019060010190808311611a2c575b5050505050815260200160088201805480602002602001604051908101604052809291908181526020018280548015611ad057602002820191906000526020600020905b8160009054906101000a900460601b6bffffffffffffffffffffffff191681526020019060010190808311611aa0575b505050505081525050838381518110611aec57611aeb61494d565b5b60200260200101819052508180611b0290614d95565b9250505b8080611b1190614de7565b91505061182f565b508082528194505050505b5092915050565b823373ffffffffffffffffffffffffffffffffffffffff1660008281548110611b5757611b5661494d565b5b906000526020600020906007020160020160009054906101000a900473ffffffffffffffffffffffffffffffffffffffff1673ffffffffffffffffffffffffffffffffffffffff1614611bd6576040517f7216ab4300000000000000000000000000000000000000000000000000000000815260040160405180910390fd5b836000811480611c0b57508060008281548110611bf657611bf561494d565b5b90600052602060002090600702016000015414155b15611c42576040517f3be6df6f00000000000000000000000000000000000000000000000000000000815260040160405180910390fd5b826000811480611c7757508060008281548110611c6257611c6161494d565b5b90600052602060002090600702016000015414155b15611cae576040517f3be6df6f00000000000000000000000000000000000000000000000000000000815260040160405180910390fd5b8584808203611ce9576040517f3276c5e200000000000000000000000000000000000000000000000000000000815260040160405180910390fd5b60003411611d23576040517f3e316c1100000000000000000000000000000000000000000000000000000000815260040160405180910390fd5b60018781548110611d3757611d3661494d565b5b906000526020600020906009020160060160009054906101000a900460ff16611d8c576040517f10ccf91200000000000000000000000000000000000000000000000000000000815260040160405180910390fd5b3460018881548110611da157611da061494d565b5b90600052602060002090600902016005016000828254611dc19190614c89565b925050819055503460008781548110611ddd57611ddc61494d565b5b90600052602060002090600702016004016000828254611dfd9190614c89565b9250508190555060018781548110611e1857611e1761494d565b5b906000526020600020906009020160070160008981548110611e3d57611e3c61494d565b5b906000526020600020906007020160010160009054906101000a900460601b9080600181540180825580915050600190039060005260206000200160009091909190916101000a81548173ffffffffffffffffffffffffffffffffffffffff021916908360601c0217905550600160025481548110611ebf57611ebe61494d565b5b90600052602060002090600902016000015460018881548110611ee557611ee461494d565b5b90600052602060002090600902016000015414158015611f505750600160025481548110611f1657611f1561494d565b5b90600052602060002090600902016005015460018881548110611f3c57611f3b61494d565b5b906000526020600020906009020160050154115b15611f5d57866002819055505b3487877f4bddfe133233938a457955d812bf536338c6b3720b950a376d93aa2a3854979360405160405180910390a45050505050505050565b823373ffffffffffffffffffffffffffffffffffffffff1660008281548110611fc257611fc161494d565b5b906000526020600020906007020160020160009054906101000a900473ffffffffffffffffffffffffffffffffffffffff1673ffffffffffffffffffffffffffffffffffffffff1614612041576040517f7216ab4300000000000000000000000000000000000000000000000000000000815260040160405180910390fd5b836000811480612076575080600082815481106120615761206061494d565b5b90600052602060002090600702016000015414155b156120ad576040517f3be6df6f00000000000000000000000000000000000000000000000000000000815260040160405180910390fd5b600184815481106120c1576120c061494d565b5b906000526020600020906009020160060160009054906101000a900460ff16612116576040517f5f755d0a00000000000000000000000000000000000000000000000000000000815260040160405180910390fd5b60006001858154811061212c5761212b61494d565b5b906000526020600020906009020160060160006101000a81548160ff02191690831515021790555060008086815481106121695761216861494d565b5b9060005260206000209060070201600501848154811061218c5761218b61494d565b5b90600052602060002001819055506001600086815481106121b0576121af61494d565b5b906000526020600020906007020160060160008282546121d09190614d1b565b9250508190555083857fbcb5aed86bc918a3d0afb8c2b27a94547e8abdf185104d885f0a7c7d221810bb60405160405180910390a35050505050565b6000806003600061221c85613b12565b6bffffffffffffffffffffffff19166bffffffffffffffffffffffff191681526020019081526020016000205490506000810361225d576000915050612263565b60019150505b919050565b612270613b9c565b60006001600254815481106122885761228761494d565b5b906000526020600020906009020160000154146124c8576001600254815481106122b5576122b461494d565b5b9060005260206000209060090201604051806101200160405290816000820154815260200160018201548152602001600282015481526020016003820160009054906101000a900460601b6bffffffffffffffffffffffff19166bffffffffffffffffffffffff19168152602001600482018054612332906149ab565b80601f016020809104026020016040519081016040528092919081815260200182805461235e906149ab565b80156123ab5780601f10612380576101008083540402835291602001916123ab565b820191906000526020600020905b81548152906001019060200180831161238e57829003601f168201915b50505050508152602001600582015481526020016006820160009054906101000a900460ff161515151581526020016007820180548060200260200160405190810160405280929190818152602001828054801561244457602002820191906000526020600020905b8160009054906101000a900460601b6bffffffffffffffffffffffff191681526020019060010190808311612414575b50505050508152602001600882018054806020026020016040519081016040528092919081815260200182805480156124b857602002820191906000526020600020905b8160009054906101000a900460601b6bffffffffffffffffffffffff191681526020019060010190808311612488575b50505050508152505090506124c9565b5b90565b606060018054905083111561250d576040517f3df5f78800000000000000000000000000000000000000000000000000000000815260040160405180910390fd5b60008314801561251a5750815b1561253357600180805490506125309190614d1b565b92505b6000600a67ffffffffffffffff8111156125505761254f613d54565b5b60405190808252806020026020018201604052801561258957816020015b612576613b9c565b81526020019060019003908161256e5790505b5090506000808590505b6000811180156125a35750600a82105b1561284057600181815481106125bc576125bb61494d565b5b906000526020600020906009020160060160009054906101000a900460ff161561282d57600181815481106125f4576125f361494d565b5b9060005260206000209060090201604051806101200160405290816000820154815260200160018201548152602001600282015481526020016003820160009054906101000a900460601b6bffffffffffffffffffffffff19166bffffffffffffffffffffffff19168152602001600482018054612671906149ab565b80601f016020809104026020016040519081016040528092919081815260200182805461269d906149ab565b80156126ea5780601f106126bf576101008083540402835291602001916126ea565b820191906000526020600020905b8154815290600101906020018083116126cd57829003601f168201915b50505050508152602001600582015481526020016006820160009054906101000a900460ff161515151581526020016007820180548060200260200160405190810160405280929190818152602001828054801561278357602002820191906000526020600020905b8160009054906101000a900460601b6bffffffffffffffffffffffff191681526020019060010190808311612753575b50505050508152602001600882018054806020026020016040519081016040528092919081815260200182805480156127f757602002820191906000526020600020905b8160009054906101000a900460601b6bffffffffffffffffffffffff1916815260200190600101908083116127c7575b5050505050815250508383815181106128135761281261494d565b5b6020026020010181905250818061282990614d95565b9250505b808061283890614e2f565b915050612593565b50808252819250505092915050565b81600081511161288b576040517f9e24907500000000000000000000000000000000000000000000000000000000815260040160405180910390fd5b60006003600061289a86613b12565b6bffffffffffffffffffffffff19166bffffffffffffffffffffffff1916815260200190815260200160002054146128fe576040517f638f5f5800000000000000000000000000000000000000000000000000000000815260040160405180910390fd5b600061290984613b12565b9050606060006040518060e001604052806004548152602001846bffffffffffffffffffffffff191681526020013373ffffffffffffffffffffffffffffffffffffffff168152602001868152602001600081526020018381526020016000815250905060008190806001815401808255809150506001900390600052602060002090600702016000909190919091506000820151816000015560208201518160010160006101000a81548173ffffffffffffffffffffffffffffffffffffffff021916908360601c021790555060408201518160020160006101000a81548173ffffffffffffffffffffffffffffffffffffffff021916908373ffffffffffffffffffffffffffffffffffffffff1602179055506060820151816003019081612a339190614b88565b506080820151816004015560a0820151816005019080519060200190612a5a929190613bf9565b5060c08201518160060155505060045460036000856bffffffffffffffffffffffff19166bffffffffffffffffffffffff191681526020019081526020016000208190555060046000815480929190612ab290614d95565b919050555084604051612ac59190614d04565b604051809103902086604051612adb9190614d04565b60405180910390206001600454612af29190614d1b565b7f18fc65c7d9d7caa5d2de658d3e8ce3db3eb91fd209242bedcfe5d084fe40a70a60405160405180910390a4505050505050565b612b2e613b9c565b826000811480612b6357508060008281548110612b4e57612b4d61494d565b5b90600052602060002090600702016000015414155b15612b9a576040517f3be6df6f00000000000000000000000000000000000000000000000000000000815260040160405180910390fd5b60018381548110612bae57612bad61494d565b5b906000526020600020906009020160060160009054906101000a900460ff1615612df95760018381548110612be657612be561494d565b5b9060005260206000209060090201604051806101200160405290816000820154815260200160018201548152602001600282015481526020016003820160009054906101000a900460601b6bffffffffffffffffffffffff19166bffffffffffffffffffffffff19168152602001600482018054612c63906149ab565b80601f0160208091040260200160405190810160405280929190818152602001828054612c8f906149ab565b8015612cdc5780601f10612cb157610100808354040283529160200191612cdc565b820191906000526020600020905b815481529060010190602001808311612cbf57829003601f168201915b50505050508152602001600582015481526020016006820160009054906101000a900460ff1615151515815260200160078201805480602002602001604051908101604052809291908181526020018280548015612d7557602002820191906000526020600020905b8160009054906101000a900460601b6bffffffffffffffffffffffff191681526020019060010190808311612d45575b5050505050815260200160088201805480602002602001604051908101604052809291908181526020018280548015612de957602002820191906000526020600020905b8160009054906101000a900460601b6bffffffffffffffffffffffff191681526020019060010190808311612db9575b5050505050815250509150612dfa565b5b5092915050565b612e09613c46565b60606000836000815111612e49576040517f9e24907500000000000000000000000000000000000000000000000000000000815260040160405180910390fd5b6000612e5486613b12565b9050600060036000836bffffffffffffffffffffffff19166bffffffffffffffffffffffff191681526020019081526020016000205490506000808281548110612ea157612ea061494d565b5b90600052602060002090600702016040518060e0016040529081600082015481526020016001820160009054906101000a900460601b6bffffffffffffffffffffffff19166bffffffffffffffffffffffff191681526020016002820160009054906101000a900473ffffffffffffffffffffffffffffffffffffffff1673ffffffffffffffffffffffffffffffffffffffff1673ffffffffffffffffffffffffffffffffffffffff168152602001600382018054612f5f906149ab565b80601f0160208091040260200160405190810160405280929190818152602001828054612f8b906149ab565b8015612fd85780601f10612fad57610100808354040283529160200191612fd8565b820191906000526020600020905b815481529060010190602001808311612fbb57829003601f168201915b50505050508152602001600482015481526020016005820180548060200260200160405190810160405280929190818152602001828054801561303a57602002820191906000526020600020905b815481526020019060010190808311613026575b50505050508152602001600682015481525050905060008160c00151036131265780600067ffffffffffffffff81111561307757613076613d54565b5b6040519080825280602002602001820160405280156130b057816020015b61309d613b9c565b8152602001906001900390816130955790505b503373ffffffffffffffffffffffffffffffffffffffff16836040015173ffffffffffffffffffffffffffffffffffffffff161480156131185750826000015160008c815481106131045761310361494d565b5b906000526020600020906007020160000154145b9650965096505050506136ed565b6000600a67ffffffffffffffff81111561314357613142613d54565b5b60405190808252806020026020018201604052801561317c57816020015b613169613b9c565b8152602001906001900390816131615790505b509050600060018360a00151516131939190614d1b565b90506000808290505b600081121580156131ad5750600a82105b156134b15760008560a0015182815181106131cb576131ca61494d565b5b60200260200101511415801561322e575060018560a0015182815181106131f5576131f461494d565b5b60200260200101518154811061320e5761320d61494d565b5b906000526020600020906009020160060160009054906101000a900460ff165b1561349e5760018560a00151828151811061324c5761324b61494d565b5b6020026020010151815481106132655761326461494d565b5b9060005260206000209060090201604051806101200160405290816000820154815260200160018201548152602001600282015481526020016003820160009054906101000a900460601b6bffffffffffffffffffffffff19166bffffffffffffffffffffffff191681526020016004820180546132e2906149ab565b80601f016020809104026020016040519081016040528092919081815260200182805461330e906149ab565b801561335b5780601f106133305761010080835404028352916020019161335b565b820191906000526020600020905b81548152906001019060200180831161333e57829003601f168201915b50505050508152602001600582015481526020016006820160009054906101000a900460ff16151515158152602001600782018054806020026020016040519081016040528092919081815260200182805480156133f457602002820191906000526020600020905b8160009054906101000a900460601b6bffffffffffffffffffffffff1916815260200190600101908083116133c4575b505050505081526020016008820180548060200260200160405190810160405280929190818152602001828054801561346857602002820191906000526020600020905b8160009054906101000a900460601b6bffffffffffffffffffffffff191681526020019060010190808311613438575b5050505050815250508483815181106134845761348361494d565b5b6020026020010181905250818061349a90614d95565b9250505b80806134a990614de7565b91505061319c565b50808352600085815481106134c9576134c861494d565b5b9060005260206000209060070201833373ffffffffffffffffffffffffffffffffffffffff16866040015173ffffffffffffffffffffffffffffffffffffffff1614801561353f5750856000015160008f8154811061352b5761352a61494d565b5b906000526020600020906007020160000154145b826040518060e0016040529081600082015481526020016001820160009054906101000a900460601b6bffffffffffffffffffffffff19166bffffffffffffffffffffffff191681526020016002820160009054906101000a900473ffffffffffffffffffffffffffffffffffffffff1673ffffffffffffffffffffffffffffffffffffffff1673ffffffffffffffffffffffffffffffffffffffff1681526020016003820180546135f0906149ab565b80601f016020809104026020016040519081016040528092919081815260200182805461361c906149ab565b80156136695780601f1061363e57610100808354040283529160200191613669565b820191906000526020600020905b81548152906001019060200180831161364c57829003601f168201915b5050505050815260200160048201548152602001600582018054806020026020016040519081016040528092919081815260200182805480156136cb57602002820191906000526020600020905b8154815260200190600101908083116136b7575b5050505050815260200160068201548152505092509950995099505050505050505b509250925092565b6136fd613c46565b600061370883613b12565b9050600060036000836bffffffffffffffffffffffff19166bffffffffffffffffffffffff191681526020019081526020016000205490503373ffffffffffffffffffffffffffffffffffffffff166000828154811061376b5761376a61494d565b5b906000526020600020906007020160020160009054906101000a900473ffffffffffffffffffffffffffffffffffffffff1673ffffffffffffffffffffffffffffffffffffffff16146137ea576040517f7216ab4300000000000000000000000000000000000000000000000000000000815260040160405180910390fd5b60008082815481106137ff576137fe61494d565b5b90600052602060002090600702016000015403613848576040517f3be6df6f00000000000000000000000000000000000000000000000000000000815260040160405180910390fd5b6000818154811061385c5761385b61494d565b5b90600052602060002090600702016040518060e0016040529081600082015481526020016001820160009054906101000a900460601b6bffffffffffffffffffffffff19166bffffffffffffffffffffffff191681526020016002820160009054906101000a900473ffffffffffffffffffffffffffffffffffffffff1673ffffffffffffffffffffffffffffffffffffffff1673ffffffffffffffffffffffffffffffffffffffff16815260200160038201805461391a906149ab565b80601f0160208091040260200160405190810160405280929190818152602001828054613946906149ab565b80156139935780601f1061396857610100808354040283529160200191613993565b820191906000526020600020905b81548152906001019060200180831161397657829003601f168201915b5050505050815260200160048201548152602001600582018054806020026020016040519081016040528092919081815260200182805480156139f557602002820191906000526020600020905b8154815260200190600101908083116139e1575b5050505050815260200160068201548152505092505050919050565b60008181548110613a2157600080fd5b90600052602060002090600702016000915090508060000154908060010160009054906101000a900460601b908060020160009054906101000a900473ffffffffffffffffffffffffffffffffffffffff1690806003018054613a83906149ab565b80601f0160208091040260200160405190810160405280929190818152602001828054613aaf906149ab565b8015613afc5780601f10613ad157610100808354040283529160200191613afc565b820191906000526020600020905b815481529060010190602001808311613adf57829003601f168201915b5050505050908060040154908060060154905086565b6000808290506020810151915050919050565b828054828255906000526020600020908101928215613b8b579160200282015b82811115613b8a5782518260006101000a81548173ffffffffffffffffffffffffffffffffffffffff021916908360601c021790555091602001919060010190613b45565b5b509050613b989190613ca8565b5090565b60405180610120016040528060008152602001600081526020016000815260200160006bffffffffffffffffffffffff19168152602001606081526020016000815260200160001515815260200160608152602001606081525090565b828054828255906000526020600020908101928215613c35579160200282015b82811115613c34578251825591602001919060010190613c19565b5b509050613c429190613ca8565b5090565b6040518060e001604052806000815260200160006bffffffffffffffffffffffff19168152602001600073ffffffffffffffffffffffffffffffffffffffff168152602001606081526020016000815260200160608152602001600081525090565b5b80821115613cc1576000816000905550600101613ca9565b5090565b6000819050919050565b613cd881613cc5565b82525050565b6000602082019050613cf36000830184613ccf565b92915050565b6000604051905090565b600080fd5b600080fd5b613d1681613cc5565b8114613d2157600080fd5b50565b600081359050613d3381613d0d565b92915050565b600080fd5b600080fd5b6000601f19601f8301169050919050565b7f4e487b7100000000000000000000000000000000000000000000000000000000600052604160045260246000fd5b613d8c82613d43565b810181811067ffffffffffffffff82111715613dab57613daa613d54565b5b80604052505050565b6000613dbe613cf9565b9050613dca8282613d83565b919050565b600067ffffffffffffffff821115613dea57613de9613d54565b5b613df382613d43565b9050602081019050919050565b82818337600083830152505050565b6000613e22613e1d84613dcf565b613db4565b905082815260208101848484011115613e3e57613e3d613d3e565b5b613e49848285613e00565b509392505050565b600082601f830112613e6657613e65613d39565b5b8135613e76848260208601613e0f565b91505092915050565b60008060408385031215613e9657613e95613d03565b5b6000613ea485828601613d24565b925050602083013567ffffffffffffffff811115613ec557613ec4613d08565b5b613ed185828601613e51565b9150509250929050565b600060208284031215613ef157613ef0613d03565b5b6000613eff84828501613d24565b91505092915050565b60007fffffffffffffffffffffffffffffffffffffffff00000000000000000000000082169050919050565b613f3d81613f08565b82525050565b600081519050919050565b600082825260208201905092915050565b60005b83811015613f7d578082015181840152602081019050613f62565b60008484015250505050565b6000613f9482613f43565b613f9e8185613f4e565b9350613fae818560208601613f5f565b613fb781613d43565b840191505092915050565b60008115159050919050565b613fd781613fc2565b82525050565b600060e082019050613ff2600083018a613ccf565b613fff6020830189613ccf565b61400c6040830188613ccf565b6140196060830187613f34565b818103608083015261402b8186613f89565b905061403a60a0830185613ccf565b61404760c0830184613fce565b98975050505050505050565b61405c81613f08565b811461406757600080fd5b50565b60008135905061407981614053565b92915050565b60006020828403121561409557614094613d03565b5b60006140a38482850161406a565b91505092915050565b600080600080608085870312156140c6576140c5613d03565b5b60006140d487828801613d24565b94505060206140e587828801613d24565b93505060406140f687828801613d24565b925050606085013567ffffffffffffffff81111561411757614116613d08565b5b61412387828801613e51565b91505092959194509250565b6000806040838503121561414657614145613d03565b5b600061415485828601613d24565b925050602061416585828601613d24565b9150509250929050565b600081519050919050565b600082825260208201905092915050565b6000819050602082019050919050565b6141a481613cc5565b82525050565b6141b381613f08565b82525050565b600082825260208201905092915050565b60006141d582613f43565b6141df81856141b9565b93506141ef818560208601613f5f565b6141f881613d43565b840191505092915050565b61420c81613fc2565b82525050565b600081519050919050565b600082825260208201905092915050565b6000819050602082019050919050565b600061424a83836141aa565b60208301905092915050565b6000602082019050919050565b600061426e82614212565b614278818561421d565b93506142838361422e565b8060005b838110156142b457815161429b888261423e565b97506142a683614256565b925050600181019050614287565b5085935050505092915050565b6000610120830160008301516142da600086018261419b565b5060208301516142ed602086018261419b565b506040830151614300604086018261419b565b50606083015161431360608601826141aa565b506080830151848203608086015261432b82826141ca565b91505060a083015161434060a086018261419b565b5060c083015161435360c0860182614203565b5060e083015184820360e086015261436b8282614263565b9150506101008301518482036101008601526143878282614263565b9150508091505092915050565b60006143a083836142c1565b905092915050565b6000602082019050919050565b60006143c08261416f565b6143ca818561417a565b9350836020820285016143dc8561418b565b8060005b8581101561441857848403895281516143f98582614394565b9450614404836143a8565b925060208a019950506001810190506143e0565b50829750879550505050505092915050565b6000602082019050818103600083015261444481846143b5565b905092915050565b60008060006060848603121561446557614464613d03565b5b600061447386828701613d24565b935050602061448486828701613d24565b925050604061449586828701613d24565b9150509250925092565b6000602082840312156144b5576144b4613d03565b5b600082013567ffffffffffffffff8111156144d3576144d2613d08565b5b6144df84828501613e51565b91505092915050565b60006020820190506144fd6000830184613fce565b92915050565b60006101208301600083015161451c600086018261419b565b50602083015161452f602086018261419b565b506040830151614542604086018261419b565b50606083015161455560608601826141aa565b506080830151848203608086015261456d82826141ca565b91505060a083015161458260a086018261419b565b5060c083015161459560c0860182614203565b5060e083015184820360e08601526145ad8282614263565b9150506101008301518482036101008601526145c98282614263565b9150508091505092915050565b600060208201905081810360008301526145f08184614503565b905092915050565b61460181613fc2565b811461460c57600080fd5b50565b60008135905061461e816145f8565b92915050565b6000806040838503121561463b5761463a613d03565b5b600061464985828601613d24565b925050602061465a8582860161460f565b9150509250929050565b6000806040838503121561467b5761467a613d03565b5b600083013567ffffffffffffffff81111561469957614698613d08565b5b6146a585828601613e51565b925050602083013567ffffffffffffffff8111156146c6576146c5613d08565b5b6146d285828601613e51565b9150509250929050565b600073ffffffffffffffffffffffffffffffffffffffff82169050919050565b6000614707826146dc565b9050919050565b614717816146fc565b82525050565b600081519050919050565b600082825260208201905092915050565b6000819050602082019050919050565b6000614755838361419b565b60208301905092915050565b6000602082019050919050565b60006147798261471d565b6147838185614728565b935061478e83614739565b8060005b838110156147bf5781516147a68882614749565b97506147b183614761565b925050600181019050614792565b5085935050505092915050565b600060e0830160008301516147e4600086018261419b565b5060208301516147f760208601826141aa565b50604083015161480a604086018261470e565b506060830151848203606086015261482282826141ca565b9150506080830151614837608086018261419b565b5060a083015184820360a086015261484f828261476e565b91505060c083015161486460c086018261419b565b508091505092915050565b6000606082019050818103600083015261488981866147cc565b9050818103602083015261489d81856143b5565b90506148ac6040830184613fce565b949350505050565b600060208201905081810360008301526148ce81846147cc565b905092915050565b6148df816146fc565b82525050565b600060c0820190506148fa6000830189613ccf565b6149076020830188613f34565b61491460408301876148d6565b81810360608301526149268186613f89565b90506149356080830185613ccf565b61494260a0830184613ccf565b979650505050505050565b7f4e487b7100000000000000000000000000000000000000000000000000000000600052603260045260246000fd5b7f4e487b7100000000000000000000000000000000000000000000000000000000600052602260045260246000fd5b600060028204905060018216806149c357607f821691505b6020821081036149d6576149d561497c565b5b50919050565b60008190508160005260206000209050919050565b60006020601f8301049050919050565b600082821b905092915050565b600060088302614a3e7fffffffffffffffffffffffffffffffffffffffffffffffffffffffffffffffff82614a01565b614a488683614a01565b95508019841693508086168417925050509392505050565b6000819050919050565b6000614a85614a80614a7b84613cc5565b614a60565b613cc5565b9050919050565b6000819050919050565b614a9f83614a6a565b614ab3614aab82614a8c565b848454614a0e565b825550505050565b600090565b614ac8614abb565b614ad3818484614a96565b505050565b5b81811015614af757614aec600082614ac0565b600181019050614ad9565b5050565b601f821115614b3c57614b0d816149dc565b614b16846149f1565b81016020851015614b25578190505b614b39614b31856149f1565b830182614ad8565b50505b505050565b600082821c905092915050565b6000614b5f60001984600802614b41565b1980831691505092915050565b6000614b788383614b4e565b9150826002028217905092915050565b614b9182613f43565b67ffffffffffffffff811115614baa57614ba9613d54565b5b614bb482546149ab565b614bbf828285614afb565b600060209050601f831160018114614bf25760008415614be0578287015190505b614bea8582614b6c565b865550614c52565b601f198416614c00866149dc565b60005b82811015614c2857848901518255600182019150602085019450602081019050614c03565b86831015614c455784890151614c41601f891682614b4e565b8355505b6001600288020188555050505b505050505050565b7f4e487b7100000000000000000000000000000000000000000000000000000000600052601160045260246000fd5b6000614c9482613cc5565b9150614c9f83613cc5565b9250828201905080821115614cb757614cb6614c5a565b5b92915050565b600081519050919050565b600081905092915050565b6000614cde82614cbd565b614ce88185614cc8565b9350614cf8818560208601613f5f565b80840191505092915050565b6000614d108284614cd3565b915081905092915050565b6000614d2682613cc5565b9150614d3183613cc5565b9250828203905081811115614d4957614d48614c5a565b5b92915050565b600081905092915050565b50565b6000614d6a600083614d4f565b9150614d7582614d5a565b600082019050919050565b6000614d8b82614d5d565b9150819050919050565b6000614da082613cc5565b91507fffffffffffffffffffffffffffffffffffffffffffffffffffffffffffffffff8203614dd257614dd1614c5a565b5b600182019050919050565b6000819050919050565b6000614df282614ddd565b91507f80000000000000000000000000000000000000000000000000000000000000008203614e2457614e23614c5a565b5b600182039050919050565b6000614e3a82613cc5565b915060008203614e4d57614e4c614c5a565b5b60018203905091905056fea26469706673582212202e10fea1372b60f3ad9000e61cd8e1cb8eb6ef3710b594d03b30d9b9eb952c1c64736f6c63430008120033",
  "devdoc": {
    "kind": "dev",
    "methods": {},
    "version": 1
  },
  "userdoc": {
    "kind": "user",
    "methods": {},
    "version": 1
  },
  "storageLayout": {
    "storage": [
      {
        "astId": 33,
        "contract": "contracts/Socialmedia.sol:Socialmedia",
        "label": "s_users",
        "offset": 0,
        "slot": "0",
        "type": "t_array(t_struct(User)61_storage)dyn_storage"
      },
      {
        "astId": 37,
        "contract": "contracts/Socialmedia.sol:Socialmedia",
        "label": "s_allPosts",
        "offset": 0,
        "slot": "1",
        "type": "t_array(t_struct(Post)82_storage)dyn_storage"
      },
      {
        "astId": 39,
        "contract": "contracts/Socialmedia.sol:Socialmedia",
        "label": "s_highlyTipedImageIndex",
        "offset": 0,
        "slot": "2",
        "type": "t_uint256"
      },
      {
        "astId": 43,
        "contract": "contracts/Socialmedia.sol:Socialmedia",
        "label": "s_userNameToUserIndex",
        "offset": 0,
        "slot": "3",
        "type": "t_mapping(t_bytes20,t_uint256)"
      },
      {
        "astId": 45,
        "contract": "contracts/Socialmedia.sol:Socialmedia",
        "label": "s_totalUsers",
        "offset": 0,
        "slot": "4",
        "type": "t_uint256"
      }
    ],
    "types": {
      "t_address": {
        "encoding": "inplace",
        "label": "address",
        "numberOfBytes": "20"
      },
      "t_array(t_bytes20)dyn_storage": {
        "base": "t_bytes20",
        "encoding": "dynamic_array",
        "label": "bytes20[]",
        "numberOfBytes": "32"
      },
      "t_array(t_struct(Post)82_storage)dyn_storage": {
        "base": "t_struct(Post)82_storage",
        "encoding": "dynamic_array",
        "label": "struct Socialmedia.Post[]",
        "numberOfBytes": "32"
      },
      "t_array(t_struct(User)61_storage)dyn_storage": {
        "base": "t_struct(User)61_storage",
        "encoding": "dynamic_array",
        "label": "struct Socialmedia.User[]",
        "numberOfBytes": "32"
      },
      "t_array(t_uint256)dyn_storage": {
        "base": "t_uint256",
        "encoding": "dynamic_array",
        "label": "uint256[]",
        "numberOfBytes": "32"
      },
      "t_bool": {
        "encoding": "inplace",
        "label": "bool",
        "numberOfBytes": "1"
      },
      "t_bytes20": {
        "encoding": "inplace",
        "label": "bytes20",
        "numberOfBytes": "20"
      },
      "t_bytes_storage": {
        "encoding": "bytes",
        "label": "bytes",
        "numberOfBytes": "32"
      },
      "t_mapping(t_bytes20,t_uint256)": {
        "encoding": "mapping",
        "key": "t_bytes20",
        "label": "mapping(bytes20 => uint256)",
        "numberOfBytes": "32",
        "value": "t_uint256"
      },
      "t_struct(Post)82_storage": {
        "encoding": "inplace",
        "label": "struct Socialmedia.Post",
        "members": [
          {
            "astId": 63,
            "contract": "contracts/Socialmedia.sol:Socialmedia",
            "label": "postId",
            "offset": 0,
            "slot": "0",
            "type": "t_uint256"
          },
          {
            "astId": 65,
            "contract": "contracts/Socialmedia.sol:Socialmedia",
            "label": "postIndex",
            "offset": 0,
            "slot": "1",
            "type": "t_uint256"
          },
          {
            "astId": 67,
            "contract": "contracts/Socialmedia.sol:Socialmedia",
            "label": "userId",
            "offset": 0,
            "slot": "2",
            "type": "t_uint256"
          },
          {
            "astId": 69,
            "contract": "contracts/Socialmedia.sol:Socialmedia",
            "label": "userName",
            "offset": 0,
            "slot": "3",
            "type": "t_bytes20"
          },
          {
            "astId": 71,
            "contract": "contracts/Socialmedia.sol:Socialmedia",
            "label": "postImageUrl",
            "offset": 0,
            "slot": "4",
            "type": "t_bytes_storage"
          },
          {
            "astId": 73,
            "contract": "contracts/Socialmedia.sol:Socialmedia",
            "label": "tipedAmount",
            "offset": 0,
            "slot": "5",
            "type": "t_uint256"
          },
          {
            "astId": 75,
            "contract": "contracts/Socialmedia.sol:Socialmedia",
            "label": "isActive",
            "offset": 0,
            "slot": "6",
            "type": "t_bool"
          },
          {
            "astId": 78,
            "contract": "contracts/Socialmedia.sol:Socialmedia",
            "label": "tipedUsers",
            "offset": 0,
            "slot": "7",
            "type": "t_array(t_bytes20)dyn_storage"
          },
          {
            "astId": 81,
            "contract": "contracts/Socialmedia.sol:Socialmedia",
            "label": "owners",
            "offset": 0,
            "slot": "8",
            "type": "t_array(t_bytes20)dyn_storage"
          }
        ],
        "numberOfBytes": "288"
      },
      "t_struct(User)61_storage": {
        "encoding": "inplace",
        "label": "struct Socialmedia.User",
        "members": [
          {
            "astId": 47,
            "contract": "contracts/Socialmedia.sol:Socialmedia",
            "label": "userId",
            "offset": 0,
            "slot": "0",
            "type": "t_uint256"
          },
          {
            "astId": 49,
            "contract": "contracts/Socialmedia.sol:Socialmedia",
            "label": "userName",
            "offset": 0,
            "slot": "1",
            "type": "t_bytes20"
          },
          {
            "astId": 51,
            "contract": "contracts/Socialmedia.sol:Socialmedia",
            "label": "ownerAddress",
            "offset": 0,
            "slot": "2",
            "type": "t_address"
          },
          {
            "astId": 53,
            "contract": "contracts/Socialmedia.sol:Socialmedia",
            "label": "profileImageUrl",
            "offset": 0,
            "slot": "3",
            "type": "t_bytes_storage"
          },
          {
            "astId": 55,
            "contract": "contracts/Socialmedia.sol:Socialmedia",
            "label": "balanceEth",
            "offset": 0,
            "slot": "4",
            "type": "t_uint256"
          },
          {
            "astId": 58,
            "contract": "contracts/Socialmedia.sol:Socialmedia",
            "label": "posts",
            "offset": 0,
            "slot": "5",
            "type": "t_array(t_uint256)dyn_storage"
          },
          {
            "astId": 60,
            "contract": "contracts/Socialmedia.sol:Socialmedia",
            "label": "totalPosts",
            "offset": 0,
            "slot": "6",
            "type": "t_uint256"
          }
        ],
        "numberOfBytes": "224"
      },
      "t_uint256": {
        "encoding": "inplace",
        "label": "uint256",
        "numberOfBytes": "32"
      }
    }
  }
}